:020000040800F2
:10000000F814002045010008ED1E0008EF1E00084E
:10001000F31E0008F71E0008FB1E00080000000089
:10002000000000000000000000000000FF1E0008AB
:10003000011F000800000000031F0008051F000842
:100040005F0100085F0100085F0100085F01000810
:100050005F0100085F010008AB9F00085F01000816
:100060005F0100085F0100085F0100085F010008F0
:100070005F0100085F0100085F0100085F010008E0
:100080005F0100085F0100085F0100085F010008D0
:100090005F0100085F0100085F0100085F010008C0
:1000A0005F0100085F0100085F0100085F010008B0
:1000B000ED1F0008472000085F0100085F010008ED
:1000C0005F0100085F0100085F0100085F01000890
:1000D0005F0100084D1F0008CD1F00085F010008E8
:1000E000331F00085F0100085F0100085F0100087E
:1000F0005F0100085F0100085F0100085F01000860
:100100005F0100085F0100085F0100085F0100084F
:100110005F0100085F010008712100085F0100080D
:100120005F0100085F0100085F0100085F0100082F
:10013000DFF80CD00DF0F8FA00480047911E0008D7
:10014000F81400200648804706480047FEE7FEE70F
:10015000FEE7FEE7FEE7FEE7FEE7FEE7FEE7FEE777
:1001600047020008310100080CB500200190009002
:100170006C48006840F480306A49086000BF6948F4
:10018000006800F4003000900198401C0190009835
:1001900018B90198B0F5A06FF1D16248006800F479
:1001A000003010B10120009001E000200090009884
:1001B000012843D15C48006840F010005A490860AB
:1001C0000846006820F0030008600846006840F018
:1001D0000200086053484068524948600846406839
:1001E00048600846406840F48060486008464068BF
:1001F00020F47C1048600846406840F4E8104860ED
:100200000846006840F08070086000BF45480068FC
:1002100000F000700028F9D04248406820F0030048
:10022000404948600846406840F00200486000BF0E
:100230003C48406800F00C000828F9D10CBD10B50E
:10024000FFF792FF10BD10B53648006840F001007E
:1002500034490860084640683449084031494860DC
:1002600008460068324908402E4908600846006880
:1002700020F4802008600846406820F4FE004860B2
:100280004FF41F008860FFF7DAFF4FF00060294944
:10029000086010BD10B5002100200022214B5B68D2
:1002A00003F00C0121B1042906D0082928D107E068
:1002B000214B224C236027E01F4B204C236023E07E
:1002C000184B5B6803F47010164B5B6803F48032C4
:1002D000022303EB904022B9194B4343174C236090
:1002E0000DE0104B5B6803F4003323B1144B434320
:1002F000124C236003E0104B4343104C236003E097
:100300000D4B0E4C236000BF00BF064B5B68C3F370
:1003100003130C4CE15C094B1B68CB40074C23607A
:1003200010BD000000100240002002400000FFF855
:10033000FFFFF6FE08ED00E000127A00000000204A
:1003400000093D000400002031490143314A116099
:10035000704770B5002100230F22C47804B32D4CE0
:10036000246804F4E064C4F5E064210AC1F10403E4
:10037000CA40447804FA03F1847814402143090107
:10038000254C0678A155047804F01F050124AC40E3
:1003900005786D11AD0005F1E025C5F8004109E0D3
:1003A000047804F01F050124AC401C4D067876113A
:1003B00045F8264070BD1A4A0A400243154B1B1FE0
:1003C0001A60704739B1134A121D12680243114B6B
:1003D0001B1D1A6006E00F4A121D126882430D4B66
:1003E0001B1D1A607047042808D14FF0E0210969ED
:1003F00041F004014FF0E022116107E04FF0E021ED
:10040000096921F004014FF0E022116170470000FA
:100410000000FA050CED00E000E400E080E100E0FF
:1004200080FFFF1F002044490860091D0860091D66
:100430000860091D086041483F4914310860704751
:1004400000213D498279002A3AD00A4612680368A1
:100450009A430B461A600A1D126803689A430B1DE3
:100460001A60027911440A6803681A430A60324A22
:100470000832126803689A432F4B08331A601A1D1A
:10048000126803689A432C4B0C331A604279102A85
:100490000ED11A1F126803681A43274B08331A60DB
:1004A0001A1D126803681A43234B0C331A600DE0BF
:1004B0002149427911440A6803681A430A6005E039
:1004C000027911440A6803689A430A607047002160
:1004D000016001710C214171002181717047164941
:1004E000103109680143144A103211607047014607
:1004F0000020114A143212680A400AB1012000E0BB
:10050000002070470C4914310860704701460020F4
:100510000022094B1B6803EA0102074B14331B68D6
:100520000B4013B10AB1012000E0002070470249DE
:10053000143108607047000000040140FFFF0F0005
:1005400010B50446CC48844208D10121042000F0B3
:100550002DFB0021042000F029FB46E0C74884421F
:1005600008D10121082000F021FB0021082000F023
:100570001DFB3AE0C248844208D10121102000F05E
:1005800015FB0021102000F011FB2EE0BD48844235
:1005900008D10121202000F009FB0021202000F0DB
:1005A00005FB22E0B848844208D10121402000F038
:1005B000FDFA0021402000F0F9FA16E0B348844229
:1005C00008D10121802000F0F1FA0021802000F004
:1005D000EDFA0AE0AE48844207D10121801500F00F
:1005E000E5FA0021A01500F0E1FA10BD10B50121D7
:1005F000084600F0DBFA0021012000F0D7FA10BD18
:100600002DE9F041024600250026002000230024A9
:10061000002791F803C00CF00F0591F803C00CF00F
:10062000100CBCF1000F03D091F802C04CEA050594
:1006300091F800C0BCF1000F31D0146800202BE00D
:100640004FF0010C0CFA00F3B1F800C00CEA0306FD
:100650009E4220D183004FF00F0C0CFA03F7BC43ED
:1006600005FA03FC4CEA040491F803C0BCF1280F1E
:1006700006D14FF0010C0CFA00FCC2F814C00AE0DD
:1006800091F803C0BCF1480F05D14FF0010C0CFAF2
:1006900000FCC2F810C0401C0828D1D31460B1F887
:1006A00000C0BCF1FF0F34DD546800202EE000F1E3
:1006B000080C4FF0010808FA0CF3B1F800C00CEA7E
:1006C00003069E4221D183004FF00F0C0CFA03F772
:1006D000BC4305FA03FC4CEA040491F803C0BCF1E6
:1006E000280F05D100F1080C08FA0CF8C2F81480A4
:1006F00091F803C0BCF1480F07D100F1080C4FF08E
:10070000010808FA0CF8C2F81080401C0828CED363
:100710005460BDE8F0814FF6FF71018002218170C5
:100720000421C17070470246002093680B400BB152
:10073000012000E0002070470146886880B27047C1
:1007400002460020D3680B400BB1012000E00020DE
:1007500070470146C86880B27047016170474161C7
:1007600070470AB1016100E041617047C1607047A4
:100770004FF480320A4382618161826182698269B9
:10078000704702460020434B18684FF680731840AC
:1007900040EA021008433F4B186070473E49C86169
:1007A0007047F0B50A46002300240021002500F020
:1007B0000046B6F1004F02D1364EF16901E0354EE8
:1007C0007168C0F3034583B200F44016B6F5401FCC
:1007D00008D121F070612F4E766826F070662D4F9B
:1007E0007E6012E000F48016B6F5801F06D1032665
:1007F00006FA05F4A14341F0706106E0460D3601AA
:1008000003FA06F6B14341F0706122B1460D36019C
:1008100003FA06F6314300F00046B6F1004F02D16C
:100820001C4EF16101E01B4E7160F0BD30B500223D
:100830008B071C0F0F2303FA04F2164B08338C109E
:1008400053F824309343134C08348D1044F825306A
:1008500023468C1053F824308C07240F00FA04F43C
:1008600023430C4C08348D1044F8253030BD0A4920
:10087000DC3108607047000000080140000C0140B6
:10088000001001400014014000180140001C01400C
:10089000002001400000014000002042DF480068C5
:1008A00040F00100DD49086008464068DC49084026
:1008B000DA49486008460068DA490840D7490860C4
:1008C0000846006820F4802008600846406820F44C
:1008D000FE0048604FF41F0088607047CF490968E8
:1008E00021F48031CD4A11601146096821F480213C
:1008F0001160B0F5803F03D0B0F5802F0ED106E037
:10090000C649096841F48031C44A116007E0C3490F
:10091000096841F4A021C14A116000E000BF00BF96
:10092000704710B501460022002300204A11012A19
:1009300002D1BA4C236806E0022A02D1B74C236ADE
:1009400001E0B64C636A01F01F02012494401C4090
:100950000CB1012000E0002010BD38B5002000904F
:100960000024002500BF3120FFF7DBFF054600987B
:10097000401C00900098B0F5A06F01D0002DF2D07F
:100980003120FFF7CEFF08B1012400E0002420460B
:1009900038BD01460020A14A106820F0F80040EA66
:1009A000C10010607047A0490860704702460020EF
:1009B0009A4B586820F47C1042EA01031843974B85
:1009C0005860704798490866704701460020934A6E
:1009D000506820F003000843506070478F4840681B
:1009E00000F00C007047014600208C4A506820F04F
:1009F000F00008435060704701460020874A506865
:100A000020F4E06008435060704701460020834AAC
:100A1000506820F4605040EAC1005060704729B12E
:100A20007E4A527A02437D4B5A7204E07B4A527AE4
:100A300082437A4B5A7270477B49D83108607047BD
:100A400001460020754A506820F440400843506039
:100A500070470021714A20321170704A82F82010CC
:100A6000012802D004280AD104E001216B4A203277
:100A7000117005E00521694A2032117000E000BFC5
:100A800000BF70476949086070476449096A0143BB
:100A9000624A11627047654944390860704730B551
:100AA00000210022002400235C4D6D6805F00C013C
:100AB00021B1042905D0082923D105E05C4D05604A
:100AC00022E05B4D05601FE0544D6D6805F4701227
:100AD000524D6D6805F48034022505EB92421CB935
:100AE000544D554305600BE04C4D6D6805F40035E1
:100AF0001DB1504D5543056002E04D4D5543056015
:100B000002E04B4D056000BF00BF444D6D6805F02D
:100B1000F0010909484D6B5C0568DD4045603F4DBB
:100B20006D6805F4E061090A434D6B5C4568DD4082
:100B300085603A4D6D6805F46051C90A3E4D6B5CA5
:100B40004568DD40C560354D6D6805F44041890B51
:100B50003A4D6B5CC568B5FBF3F5056130BD29B155
:100B60002E4A526902432D4B5A6104E02B4A5269C6
:100B700082432A4B5A61704729B1284A926902433D
:100B8000264B9A6104E0254A92698243234B9A617D
:100B9000704729B1214AD2690243204BDA6104E04F
:100BA0001E4AD26982431D4BDA61704729B11B4A44
:100BB000D2680243194BDA6004E0184AD2688243D3
:100BC000164BDA60704729B1144A12690243134B7D
:100BD0001A6104E0114A12698243104B1A6170478E
:100BE00012494039086070470F49C86470470B4983
:100BF000C87170470948406A40F0807007494862F0
:100C0000704701460020054A92680A400AB1012057
:100C100000E00020704701498872704700100240D0
:100C20000000FFF8FFFFF6FE00004242800442424F
:100C300000127A0000093D0014000020240000206A
:100C400010B50446FE48844208D10121C014FFF7C4
:100C5000ADFF0021E014FFF7A9FFC4E0B4F1804F1D
:100C600008D101210846FFF7AEFF00210120FFF760
:100C7000AAFFB8E0F348844208D101210220FFF71F
:100C8000A2FF00210220FFF79EFFACE0EE48844265
:100C900008D101210420FFF796FF00210420FFF76F
:100CA00092FFA0E0E948844208D101210820FFF723
:100CB0008AFF00210820FFF786FF94E0E448844281
:100CC00008D101211020FFF77EFF00211020FFF73F
:100CD0007AFF88E0DF48844208D101212020FFF715
:100CE00072FF00212020FFF76EFF7CE0DA4884428B
:100CF00008D101214014FFF759FF00216014FFF7CC
:100D000055FF70E0D548844209D10121C804FFF79E
:100D10004DFF00214FF40020FFF748FF63E0D0486B
:100D2000844209D101210805FFF740FF00214FF45B
:100D30008010FFF73BFF56E0CA48844209D10121E9
:100D40004805FFF733FF00214FF40010FFF72EFF97
:100D500049E0C548844208D101214020FFF733FF14
:100D600000214020FFF72FFF3DE0C048844208D11A
:100D700001218020FFF727FF00218020FFF723FFBC
:100D800031E0BB48844208D101218015FFF71BFFE9
:100D90000021A015FFF717FF25E0B648844209D1CE
:100DA00001210804FFF702FF00214FF48030FFF714
:100DB000FDFE18E0B048844209D101214804FFF744
:100DC000F5FE00214FF40030FFF7F0FE0BE0AB48DA
:100DD000844208D101218804FFF7E8FE00214FF486
:100DE0008020FFF7E3FE10BD00220288944B98425A
:100DF0000ED0994B98420BD0B0F1804F08D0914B58
:100E0000984205D0904B984202D0904B984204D122
:100E10004FF68F731A404B881A438D4B984207D078
:100E20008C4B984204D04FF6FF431A40CB881A43AC
:100E300002808B8883850B880385814B98420BD079
:100E4000854B984208D08B4B984205D08A4B9842EC
:100E500002D08A4B984201D10B7A03860123838208
:100E6000704770B5002400220023058C4FF6FE76F3
:100E700035400584028C8388048B4FF68F752C4097
:100E8000B51E2C400D882C43751E2A400D892A431F
:100E90004D882A436A4DA8420BD06F4DA84208D016
:100EA000744DA84205D0744DA84202D0734DA8429B
:100EB00013D14FF6F7752A404D892A434FF6FB753B
:100EC0002A408D882A434FF6FF652B404FF6FF5589
:100ED0002B408D892B43CD892B4383800483CD8880
:100EE0008586028470BD70B5002400220023058C25
:100EF0004FF6EF7635400584028C8388048B48F6E4
:100F0000FF752C404FF6FF452C400D884FF6FF76BD
:100F100006EA05252C434FF6DF752A400D8906EABF
:100F200005152A434D8806EA05152A43444DA84273
:100F300002D0494DA8421DD14FF67F752A404D89F8
:100F40004FF6FF7606EA05152A434FF6BF752A408D
:100F50008D8806EA05152A434FF6FF352B404FF2E0
:100F6000FF752B408D8906EA85052B43CD8906EA5E
:100F700085052B4383800483CD880587028470BD5B
:100F800070B5002400220023058C4FF6FF66354023
:100F90000584028C8388848B4FF68F752C404FF626
:100FA000FC752C400D882C434FF6FF552A400D89C7
:100FB0004FF6FF7606EA05252A434D8806EA052501
:100FC0002A431F4DA84202D0234DA8421DD14FF203
:100FD000FF752A404D894FF6FF7606EA05252A431C
:100FE0004FF6FF352A408D8806EA05252A434EF63E
:100FF000FF752B404DF6FF752B408D8906EA0515D0
:101000002B43CD8906EA05152B4383808483CD8845
:101010008587028470BD70B5002200230024058CF2
:101020004EF6FF7635400584038C8488828B48F623
:10103000FF752A404FF6FF452A400D8820E000004A
:10104000002C01400004004000080040000C00405B
:10105000001000400014004000340140004C0140EA
:10106000005001400054014000180040001C0040A6
:101070000020004000400140004401400048014081
:101080004FF6FF7606EA05252A434DF6FF752B40FD
:101090000D8906EA05352B434D8806EA05352B43B5
:1010A000FA4DA84202D0FA4DA84208D14BF6FF757E
:1010B0002C408D894FF6FF7606EA85152C438480F7
:1010C0008283CD88A0F84050038470BD828B4FF29C
:1010D000FF331A408283828B4FF6FF7303EA0123AA
:1010E0001A4382837047F0B50C4615460022002152
:1010F0000026078C4EF6FF7C07EA0C070784828BDC
:10110000018C4FF6FF7707EA043640F6FF473A4076
:101110004FF6FF7707EA05273A434FF6FF7707EACE
:1011200003373A43D94FB8420ED0D94FB8420BD00B
:10113000B0F1804F08D0D74FB84205D0D64FB84253
:1011400002D0D64FB84206D14DF6FF77394046F46B
:101150008057394305E047F6FF57394044F480573C
:10116000394382830184F0BD828B4FF6F3731A40BA
:101170008283828B0A4382837047F0B50C46154602
:10118000002200210026078C4FF6FF6C07EA0C07AF
:101190000784828B018C4FF6FF7707EA04264FF60F
:1011A0000C773A404FF6FF7707EA03172F433A438D
:1011B000B64FB8420ED0B64FB8420BD0B0F1804F08
:1011C00008D0B44FB84205D0B34FB84202D0B34FA5
:1011D000B84206D14FF6FF57394046F4807739437D
:1011E00005E04FF2FF57394044F48077394382835A
:1011F0000184F0BD028B4FF2FF331A400283028B51
:101200004FF6FF7303EA01231A4302837047F0B5D8
:101210000C461546002200210026078C4FF6EF7C75
:1012200007EA0C070784028B018C4FF6FF7707EA69
:10123000041640F6FF473A404FF6FF7707EA0337B8
:101240003A434FF6FF7707EA05273A438F4FB842F4
:101250000ED08F4FB8420BD0B0F1804F08D08D4FD9
:10126000B84205D08C4FB84202D08C4FB84206D15C
:101270004FF6DF77394046F01007394305E04FF667
:101280005F77394044F01007394302830184F0BD91
:10129000028B4FF6F3731A400283028B0A430283D8
:1012A0007047F0B50C46154600220021068C4FF61B
:1012B000FE773E400684028B018C4FF60C7632405E
:1012C0007E1C06EA03162E433243704EB0420ED007
:1012D0006F4EB0420BD0B0F1804F08D06D4EB0428F
:1012E00005D06D4EB04202D06C4EB04206D14FF6E2
:1012F000FD76314044F00106314305E04FF6F576C6
:10130000314044F00106314302830184F0BD70B5E1
:1013100005460C465D4885420ED05D4885420BD09F
:10132000B5F1804F08D05B48854205D05A488542C8
:1013300002D05A48854200D100E000BF208850B951
:101340002389A28861882846FFF7ABFFE1882846F9
:10135000FFF79EFF25E0208804280AD12389A28870
:1013600061882846FFF753FFE1882846FFF742FFD0
:1013700017E0208808280AD12389A2886188284696
:10138000FFF7FBFEE1882846FFF7EEFE09E0238920
:10139000A28861882846FFF7A6FEE1882846FFF765
:1013A00095FE70BD2DE9F04105460C46002601274B
:1013B000608808B9022600E00026A088012801D133
:1013C000022700E001272088A0B92389A28861882C
:1013D0002846FFF766FFE1882846FFF759FF238973
:1013E0003A4631462846FFF712FFE1882846FFF7C4
:1013F00001FF13E02389A28861882846FFF707FFD1
:10140000E1882846FFF7F6FE23893A46314628460A
:10141000FFF747FFE1882846FFF73AFFBDE8F08174
:101420000A884B881A438B881A43CB881A430B8946
:101430001A434B891A438B891A43A0F844207047FA
:101440004FF6FF71818000210180C18041800172CF
:1014500070470021018041808180C18001814181EC
:101460008181C181704700210180418001218180FB
:101470000021C1800181704700210180418081806D
:10148000C18001814181818170470000002C0140B1
:10149000003401400004004000080040000C0040FF
:1014A00021B1028842F00102028004E002884FF676
:1014B000FE731A400280704731B1B0F8442042F404
:1014C0000042A0F8442005E0B0F84420C2F30E0228
:1014D000A0F8442070471AB183890B43838102E04E
:1014E00083898B43838170478182704741EA02037D
:1014F000A0F8483070471AB183890B43838102E01A
:1015000083898B438381704701894FF6F8721140BC
:10151000018170470A46002101894FF68F731940F7
:1015200011430181704730B504460D4629462046D7
:10153000FFF7F0FF208940F00700208130BD2DE942
:10154000F04104460D4616461F46602D06D13B4627
:10155000012231462046FFF75AFE05E03B460122B4
:1015600031462046FFF79DFE29462046FFF7D2FF71
:10157000208940F007002081BDE8F08130B50C469D
:1015800000210189C9B24FF6FF7505EA032515430D
:1015900025432943018130BD2DE9F04105460E4622
:1015A00017469846002443463A4631462846FFF7F8
:1015B000E5FF2C894FF6F870044044F007044FF61D
:1015C0008F70044044F070042C81BDE8F081F0B5C8
:1015D00004460D4616461F463B46324629462046DF
:1015E000FFF7CCFF208940F480402081F0BD0185C9
:1015F000828270470A46002101884FF68F73194096
:10160000114301807047F0B50C4615461E46002177
:10161000002200230189028B038C4FF6F8773940B2
:1016200021434FF6FC473A4040F201173A434FF648
:10163000DD773B404FF6FF7707EA06172F433B4322
:10164000018102830384F0BD0A460021018B4FF61D
:101650008F7319401143018370470A460021018BA3
:1016600048F6FF7319404FF6FF7303EA022319434C
:10167000018370470A460021818B4FF68F73194012
:101680001143818370470A460021818B48F6FF731E
:1016900019404FF6FF7303EA022319438183704711
:1016A00021B1028842F08002028004E002884FF6F5
:1016B0007F731A400280704721B1828842F0040291
:1016C000828004E082884FF6FB731A408280704764
:1016D00021B1828842F00802828004E082884FF6BD
:1016E000F7731A408280704721B1828842F001026C
:1016F000828004E082884FF6FE731A408280704731
:101700000A460021018B4FF6F773194011430183FC
:1017100070470A460021018B4FF2FF7319404FF6C4
:10172000FF7303EA02231943018370470A4600212D
:10173000818B4FF6F77319401143818370470A4636
:101740000021818B4FF2FF7319404FF6FF7303EABC
:1017500002231943818370470A460021018B4FF60B
:10176000FB7319401143018370470A460021018B26
:101770004FF6FF3319404FF6FF7303EA0223194374
:10178000018370470A460021818B4FF6FB73194095
:101790001143818370470A460021818B4FF6FF3346
:1017A00019404FF6FF7303EA022319438183704700
:1017B0000A460021018B4FF67F73194011430183C4
:1017C00070470A460021018BC1F30E014FF6FF73EB
:1017D00003EA02231943018370470A460021818BE3
:1017E0004FF67F7319401143818370470A460021E9
:1017F000818BC1F30E014FF6FF7303EA02231943F5
:10180000818370470A460021018C4FF6FD73194011
:101810001143018470470A460021018C4FF6F7738B
:1018200019401143018470470A460021018C4FF68C
:10183000DF7319404FF6FF7303EA02131943018463
:1018400070470A460021018C4FF67F7319404FF60E
:10185000FF7303EA02131943018470470A4600210B
:10186000018C4FF6FF5319404FF6FF7303EA022332
:101870001943018470470A460021018C4FF2FF731F
:1018800019404FF6FF7303EA02231943018470479E
:101890000A460021018C4DF6FF7319404FF6FF7385
:1018A00003EA023319430184704730B50023012451
:1018B0008C40A3B2048C9C430484048C02FA01F58E
:1018C000ADB22C43048430BD30B5002304248C40D9
:1018D000A3B2048C9C430484048C02FA01F5ADB2DB
:1018E0002C43048430BD70B5034600200024184604
:1018F000183001258D40ACB21D8CA5431D8409B163
:10190000082909D100EB6100056825F07005056024
:101910000568154305600EE00D1FC5F34E0528440C
:10192000056825F4E045056005684FF6FF7606EA90
:1019300002263543056070BD21B1028842F00202E3
:10194000028004E002884FF6FD731A40028070475F
:1019500021B1028842F00402028004E002884FF6BE
:10196000FB731A400280704721B1828842F08002E6
:10197000828004E082884FF67F731A40828070472D
:1019800002884FF6F7731A40028002880A430280E9
:10199000704782884FF68F731A40828082880A438C
:1019A0008280704702894FF6F8731A4002810289DB
:1019B0000A430281704702894FF67F731A40028101
:1019C00002890A430281704781847047818570478C
:1019D000818670470187704781877047A0F8401063
:1019E000704702884FF6FF431A40028002880A437C
:1019F000028070470146888E70470146088F704705
:101A00000146888F70470146B1F840007047014693
:101A1000888C70470146088D704702460020138A63
:101A20000B400BB1012000E000207047CA43028246
:101A3000704730B50246002000230024158A05EACD
:101A40000103958905EA010413B10CB1012000E0FE
:101A5000002030BDCA4302827047000010B5044622
:101A6000FB48844209D101218803FFF79FF8002138
:101A70004FF48040FFF79AF832E0F648844209D1EB
:101A800001214804FFF79FF800214FF40030FFF7D1
:101A90009AF825E0F048844209D101218804FFF733
:101AA00092F800214FF48020FFF78DF818E0EB4802
:101AB000844209D10121C804FFF785F800214FF4C1
:101AC0000020FFF780F80BE0E548844208D10121AF
:101AD0000805FFF778F800214FF48010FFF773F83E
:101AE00010BD2DE9F04786B005460E460024A246FB
:101AF00000BFA1460027B08900B100BF2F462C8A45
:101B00004CF6FF700440F08804432C82AC894EF6FA
:101B1000F3100440B08831890843718908430443B5
:101B2000AC81AC8A4FF6FF400440B0890443AC82DC
:101B300001A8FEF7B4FFC648874202D1DDF810A025
:101B400001E0DDF80CA0A88900F4004040B10AEBE8
:101B5000CA0000EB0A1031684900B0FBF1F807E059
:101B60000AEBCA0000EB0A1031688900B0FBF1F8FB
:101B70006420B8FBF0F004012009642101FB108906
:101B8000A88900F4004040B1322000EBC900B0FB4E
:101B9000F1F000F00700044308E0322000EB0910E8
:101BA0006421B0FBF1F000F00F0004432C8106B07B
:101BB000BDE8F0874FF41651016000218180C1809B
:101BC00001810C21418100218181704710B50246BD
:101BD0000020108A4FF2FF0318400B884C882343E3
:101BE0008C882343CC8823431843108210BD0021E6
:101BF000018041808180C180704721B1828942F497
:101C00000052828104E082894DF6FF731A4082817E
:101C10007047F0B50346002400260025002040F65A
:101C20006A17B94200D100BF1846C1F3421401F04F
:101C30001F06012707FA06F5012C01D10C3004E03C
:101C4000022C01D1103000E014301AB107682F4384
:101C5000076002E00768AF430760F0BD1AB1838AEE
:101C60000B43838202E0838A8B4383827047028A1C
:101C70004FF6F0731A400282028A0A4302827047CA
:101C800082894FF2FF731A40828182890A438281DE
:101C9000704721B1828942F00202828104E0828988
:101CA0004FF6FD731A4082817047028A4FF6DF7348
:101CB0001A400282028A0A430282704721B1028AD4
:101CC00042F48042028204E0028A4BF6FF731A401B
:101CD00002827047C1F308028280704701468888FB
:101CE000C0F308007047818941F00101818170478C
:101CF000028BD2B20283028B42EA01220283704736
:101D0000028B02F47F420283028B0A4302837047F4
:101D100021B1828A42F02002828204E0828A4FF658
:101D2000DF731A408282704721B1828A42F010022A
:101D3000828204E0828A4FF6EF731A4082827047F3
:101D400021B1828A42F00802828204E0828A4FF640
:101D5000F7731A408282704721B1828942F40042AF
:101D6000828103E08289C2F30E028281704721B131
:101D7000828A42F40062828204E0828A4FF2FF7318
:101D80001A4082827047828A4FF6FB731A40828221
:101D9000828A0A438282704721B1828A42F002021B
:101DA000828204E0828A4FF6FD731A408282704775
:101DB00002460020B1F5007F00D100BF13880B4020
:101DC0000BB1012000E00020704701F40072B2F571
:101DD000007F00D100BFCA430280704770B5024641
:101DE000002400230025002040F66A16B14200D1ED
:101DF00000BFC1F3421501F01F03012606FA03F3E9
:101E0000012D02D19689334006E0022D02D1168AB7
:101E1000334001E0968A33400C12012606FA04F49E
:101E20001688344013B10CB1012000E0002070BDD1
:101E300010B50022002340F66A14A14200D100BF71
:101E40000A1201249440A3B2DC43048010BD0000B8
:101E5000003801400044004000480040004C004071
:101E60000050004010B500F02FFB4FF0E02000695B
:101E700040F001004FF0E021086100F0B5FB00F0F8
:101E800027FC07F042FD08F06CF807F0A0FE10BD3B
:101E900000F0B0F900F03AFA4FF4164000F0E9F91A
:101EA00000F0F6FD0A4800F094FA00F0ECFE00F0B5
:101EB000FFFE08F085FC08F04BFC08F051FCFFF732
:101EC000D1FF04A00BF06EFC00BF07F0FBFEFCE7A7
:101ED000280000200ACFB5CDB3B3F5CABCBBAFCD47
:101EE000EAB1CF2E2E2E2E2E2E0A0000704700BFF4
:101EF000FEE700BFFEE700BFFEE700BFFEE770475A
:101F00007047704710B500F041FB00F048FB00241B
:101F10000CE0A84850F8240030B1A64850F824003E
:101F2000401EA44941F82400601CC4B2022CF0DB1E
:101F300010BD10B54FF40060FEF7E8FA28B107F0C5
:101F400050FB4FF40060FEF7F2FA10BD10B540F2FE
:101F500025519948FFF742FF002835D09648FFF7F2
:101F6000BDFEC4B22146954800F024FA232C01D0CE
:101F7000212C09D192480470142192480AF085FE60
:101F800000209149086010BD8D480078232806D1B3
:101F9000204600F043FE00208949087014E088487C
:101FA0000078212810D187488749096840F82140E6
:101FB00085480068401C8449086008460068052878
:101FC00002D101208149087000BFDCE710B5202153
:101FD0007F48FFF7EDFE012807D17D48FFF77EFE21
:101FE000C4B221467BA00BF0DDFB10BD10B5012172
:101FF0008807FFF71EFD28B37748007898B1774827
:10200000006808F0E7FA75480068401C73490860EA
:1020100008460068022811D10020086000BF00BFF8
:1020200008F0B3FA0AE06948007838B1002067493F
:10203000087001206849087008F0A7FA0121880794
:10204000FFF708FD10BD10B501216548FFF7F1FC51
:1020500060B164484088634948800846008981B27D
:102060006048018101215E48FFF7F4FC02215C48D1
:10207000FFF7DFFC002838D05A480078002834D118
:1020800000BF00BF5748407878B900BF00BF544830
:10209000FFF7B0FC5349488002215148FFF7B2FBDB
:1020A00001205049487008711BE000BF00BF4C4838
:1020B000FFF7A0FC4B494988401A4A494880002153
:1020C0004748FFF79FFB00204649487008460079C3
:1020D000012802D1087000BF01E000BF00BF00BFAF
:1020E00000BF02213E48FFF7B5FC04213C48FFF742
:1020F000A0FC00283BD03B48807978BB00BF00BFE4
:102100003848C07980B900BF00BF3548FFF775FC7B
:102110003449088102213248FFF786FB012131480A
:10212000C171022181721EE000BF00BF2C48FFF781
:1021300064FC2C490989401A81B22A480181002196
:102140002748FFF771FB00212648C171807A0228D9
:1021500005D101202349887100BF02E007E000BFDC
:1021600000BF00BF00BF04211D48FFF773FC10BD76
:1021700010B501211C48FFF75CFCC8B11B48006882
:10218000401C1A49086008460068B0F5FA6F02D191
:102190000020174908601548006840F2D271884253
:1021A00002D100201149086001210F48FFF752FCBD
:1021B00010BD000030000020003801402800002041
:1021C000380000207C0100203C0000207B01002022
:1021D00000440040256300007A01002040000020F8
:1021E000000400402C08002000100040580000208F
:1021F0005C00002000B585B0012144F20400FEF728
:10220000BBFC4FF40070ADF8100018208DF81300DF
:1022100003208DF8120004A96048FEF7F1F94FF48D
:102220008060ADF8100004208DF8130004A95B480D
:10223000FEF7E6F94FF4164000900020ADF80400D8
:10224000ADF80600ADF80800ADF80C000C20ADF8B4
:102250000A0069465248FFF744FC012240F225512A
:102260004F48FFF7D6FC01214D48FFF7C6FC05B0EB
:1022700000BD10B586B0044601210520FEF77CFCA8
:1022800001214848FEF785FC0820ADF814004820DD
:102290008DF8170005A94148FEF7B2F90420ADF802
:1022A000140003208DF8160018208DF8170005A9DA
:1022B0003A48FEF7A5F926208DF8100003208DF886
:1022C00011008DF8120001208DF8130004A8FEF70C
:1022D00040F800940020ADF80400ADF80600ADF819
:1022E0000800ADF80C000C20ADF80A0069462E4835
:1022F000FFF7F7FB012240F225512B48FFF789FC3D
:1023000001212948FFF779FC06B010BD08B54FF44C
:10231000E060FEF719F825208DF8000000208DF808
:10232000010001208DF802008DF803006846FEF7D9
:1023300010F808BD70B504460D46E1B21A48FFF723
:10234000C9FC00BF80211848FFF732FD0028F9D0F2
:10235000204670BD10B5044600BF20211248FFF78B
:1023600027FD0028F9D01048FFF7B8FC10BD10B5C4
:1023700001210B48FFF7AEFC10BD08B50B4800F07B
:102380004EF848B96946094800F02EF89DF800104B
:1023900007A00BF007FA00BF08BD000000080140CD
:1023A00000380140010002000044004028000020E5
:1023B0002563000070B505460E4608200CF02EFC83
:1023C00004462CB1267000206060686844606C6030
:1023D00070BD10B5044608200CF020FC6060206041
:1023E00000202168486010BD70B504460E46D4E94F
:1023F0000001884200D170BD2068456820684068AF
:102400006168884201D1206860602878307068680F
:102410002168486028460CF0D9FB00BFEBE7014675
:10242000D1E90002904201D1012070470020FCE771
:1024300001460A68002001E0401C52684B68934244
:10244000FAD1704770B504462068456805E02E460D
:102450006D6830460CF0BAFB00BF002DF7D125683F
:1024600000206060206028460CF0B0FB70BD70B5A5
:102470000446D4E90001884200D170BD2068456857
:1024800004E029780DA00BF08DF96D686068A84212
:10249000F7D129780AA00BF085F90AA00BF082F990
:1024A00000BFEAE7D0E900239A4200D170470268F2
:1024B000526812780A7000BFF8E700002563200018
:1024C000256300000A00000030B5384800684FF46A
:1024D0007A72B0FBF2F1B1F1807F01D301201DE0EF
:1024E00021F07F40401E4FF0E022506150170F2234
:1024F000002807DA13071D0E2D4B00F00F04241FD0
:102500001D5503E013071C0E2A4B1C5400BF00206E
:102510004FF0E022906107201061002008B100BF59
:10252000FEE74FF0E020006920F001004FF0E021CD
:10253000086130BD01B52049009808604FF0E020E7
:10254000006940F001004FF0E021086100BF1A4827
:1025500000680028FBD108BD01B503E04FF47A7094
:10256000FFF7E8FF0098411E00910028F6D108BD52
:102570001149086000BF104909680029FBD1704764
:1025800001460E4800680860002070470A4800684D
:1025900020B109480068401E074908607047074895
:1025A0000068401C054908607047000000000020DA
:1025B00018ED00E000E400E04800002044000020A6
:1025C00008B54FF4C060FDF7BFFE28208DF800006D
:1025D00000208DF801008DF8020001208DF8030025
:1025E0006846FDF7B6FE08BD0EB501210420FEF7D2
:1025F000C3FAFFF7E5FF4FF40060ADF808000420D0
:102600008DF80B0002A91E48FDF7FAFF0B210020F0
:10261000FEF70CF94FF40060009000208DF80400E4
:1026200008208DF8050001208DF806006846FDF7AA
:1026300007FF0EBD1CB54FF40060009000208DF820
:10264000040008208DF8050001208DF8060068467A
:10265000FDF7F6FE1CBD1CB54FF400600090002095
:102660008DF8040008208DF8050000208DF8060084
:102670006846FDF7E5FE4FF40060FDF758FF1CBD0E
:102680000008014000BF411E081EFCD1704708B57C
:1026900001210820FEF770FAC020ADF800000220EA
:1026A0008DF8020014208DF803006946F548FDF707
:1026B000A7FF4021F348FEF750F88021F148FEF7CC
:1026C0004CF8F148FFF7DEFF08BDF049088070477D
:1026D00010B50520FFF7F9FF00BF00BFFFF7D7FFD8
:1026E00010BD10B58021E748FEF739F80A20FFF742
:1026F000C9FF4021E348FEF730F80A20FFF7C2FF88
:102700008021E048FEF729F80A20FFF7BBFF10BD43
:1027100010B500248021DB48FEF71FF80A20FFF7E0
:10272000B1FF4021D748FEF718F80A20FFF7AAFFAB
:1027300007E0601CC4B2FA2C03DDFFF7D2FF0220D1
:1027400010BD8021CF48FDF7EEFF0028F1D14021D8
:10275000CC48FEF704F80020F2E770B504464021AB
:10276000C848FDF7FCFF002520E004F0800020B100
:102770008021C448FDF7F1FF03E08021C148FDF747
:10278000EEFF6006040E0A20FFF77CFF4021BD48E3
:10279000FDF7E3FF0A20FFF775FF4021B948FDF779
:1027A000DEFF0A20FFF76EFF681CC5B2082DDCDBD8
:1027B000FFF7AEFF70BD10B58021B248FDF7CDFF29
:1027C0000A20FFF75FFF4021AE48FDF7C6FF0A2051
:1027D000FFF758FF8021AB48FDF7A5FF08B901209E
:1027E00010BD8021A748FDF7BAFF0A20FFF74AFF76
:1027F0004021A448FDF7B3FF0A20FFF743FF8021E3
:10280000A048FDF790FF08B10220E9E70020E7E7C4
:102810002DE9F04706460F46904699460025FFF7FA
:10282000CAFF002141EA4601C8B2FFF796FF0546FC
:1028300015B12846BDE8F0873846FFF78EFF0546FC
:102840000DB12846F6E7002409E019F80400FFF767
:1028500084FF05460DB12846ECE7601CC4B2444530
:10286000F3DBFFF73EFF0020E4E78848008870476D
:102870002DE9F04707468846144699464FF0000A6E
:102880000025FFF7F2FF064600BF0025E2B24B46E7
:1028900041463846FFF7BCFF05466DB166B150466C
:1028A000411C01F0FF0A042802DD2846BDE8F0873C
:1028B0003046FFF75DFEE8E72846F7E710B58021D0
:1028C0007048FDF74CFF0A20FFF7DCFE40216D4801
:1028D000FDF743FF0A20FFF7D5FE40216948FDF7C9
:1028E0003EFF0A20FFF7CEFE10BD70B5802165487F
:1028F000FDF733FF40216348FDF731FF0024002539
:1029000018E040215F48FDF728FF0A20FFF7BAFED4
:102910006006040E80215B48FDF705FF08B144F016
:10292000010440215748FDF71AFF0A20FFF7AAFECD
:10293000681CC5B2082DE4DBFFF7C0FF204670BD60
:1029400010B580214F48FDF708FF0A20FFF79AFED7
:1029500040214C48FDF701FF0A20FFF793FE40217C
:102960004848FDF7FCFE0A20FFF78CFE10BD70B54D
:1029700080214448FDF7F1FE40214248FDF7EFFE7B
:102980000024002518E040213E48FDF7E6FE0A201D
:10299000FFF778FE6006040E80213A48FDF7C3FE7B
:1029A00008B144F0010440213648FDF7D8FE0A2062
:1029B000FFF768FE681CC5B2082DE4DBFFF7C0FF17
:1029C000204670BD2DE9F0410746884614461D4655
:1029D000FFF7F1FE002141EA4701C8B2FFF7BDFE53
:1029E000064616B13046BDE8F0814046FFF7B5FE19
:1029F00006460EB13046F6E7FFF7DDFE012101EB9A
:102A00004701C8B2FFF7A9FE06460EB13046EAE715
:102A10000BE0012C03D1FFF7AAFF287002E0FFF7BB
:102A200064FF28706D1C601EC4B2002CF1D1FFF74A
:102A300058FE0020D7E72DE9F047074688461446A0
:102A400099464FF0000A0025FFF70FFF064600BF2A
:102A50000025E2B24B4641463846FFF7B3FF054634
:102A60006DB166B15046411C01F0FF0A042802DD39
:102A70002846BDE8F0873046FFF77AFDE8E72846AC
:102A8000F7E70000000C0140A08601005000002084
:102A900000B585B001210820FEF76EF801218804F9
:102AA000FEF777F84FF48060ADF8100018208DF82D
:102AB000130003208DF8120004A98C48FDF7A0FD37
:102AC0004FF40060ADF8100004208DF8130004A945
:102AD0008648FDF795FD4FF4165000900020ADF8A4
:102AE0000400ADF80600ADF80800ADF80C000C20AD
:102AF000ADF80A0069467E48FEF7F3FF01217C48E5
:102B0000FFF77BF805B000BD70B504460D4611E037
:102B100040217748FFF759F914F8011B7448FFF773
:102B2000D9F800BF40217248FFF742F90028F9D0D8
:102B3000681EC5B2002DEBDC70BD6E48006803282E
:102B400004DA6C480068401C6A49086070476948AC
:102B50000068012804DD67480068401E6549086078
:102B6000704710B505216448FFF7CEFF10BD10B5C2
:102B700005216248FFF7C8FF10BD0146012902D1B7
:102B80005C4800687047881CFCE710B504465C4848
:102B90000068012800D110BD0120594908600020BB
:102BA00058490860012C0DD0022C06D0032C0ED100
:102BB00007215548FFF7A8FF09E007215348FFF711
:102BC000A3FF04E007215248FFF79EFF00BF00BFAC
:102BD00000BFE0E710B50446062C1DD2DFE804F084
:102BE0001C03080D121705214A48FFF78DFF13E05B
:102BF00007214948FFF788FF0EE007214748FFF704
:102C000083FF09E007214648FFF77EFF04E0072124
:102C10004448FFF779FF00BF00BF10BD10B5044660
:102C2000092C2ED2DFE804F02D050A0F14191E23FB
:102C3000280007213C48FFF767FF22E007213B48B7
:102C4000FFF762FF1DE007213948FFF75DFF18E03D
:102C500007213848FFF758FF13E007213648FFF7F0
:102C600053FF0EE007213548FFF74EFF09E007212B
:102C70003348FFF749FF04E007213248FFF744FFDC
:102C800000BF00BF10BD08B54FF4E060FDF75CFB6E
:102C900036208DF8000000208DF8010003208DF80B
:102CA000020001208DF803006846FDF752FB08BDC5
:102CB0000EB501211020FDF76CFF40F2E730ADF8B2
:102CC00004004720ADF8000069461F48FEF78CF865
:102CD00001211D48FEF7AAFE012211461A48FEF7FF
:102CE000FAFB01211848FEF7DBFB0EBD000C01408A
:102CF00000480040540000206F00002074000020B5
:102D00005C00002058000020A8000020A100002046
:102D10009A000020790000207E000020850000201D
:102D20008C00002093000020AF000020B60000209F
:102D3000BD000020C4000020CB000020D2000020F5
:102D4000D9000020E00000200010004038B5044603
:102D5000F84890F82400C0B114B10220009001E0BE
:102D600000200090F34A1268517CF24A52681078B1
:102D70006B460122FFF77CFD10B14FF0FF3038BDEC
:102D80009DF80010EB48417423E0EA48807A10B9BE
:102D90004FF0FF30F3E724B1E648407C08B1002053
:102DA000EDE714B10120009001E000200090E14A1D
:102DB0001268517CDF4A526810786B460122FFF797
:102DC00057FD10B14FF0FF30D9E79DF80010D948FA
:102DD00041740020D3E71CB5002422E0D5480068E8
:102DE000407BA04204D0D3480068007EA04200D1BE
:102DF00015E0D0494968087801AB01222146FFF768
:102E00001AFE10B14FF0FF301CBD9DF804002346A0
:102E1000C9A200210090042002F0D9FD00BF601C6F
:102E2000C4B2C44840680079A042D7DC0020EBE778
:102E300070B504460D46BF480068407BA04204D0F0
:102E4000BC480068007EA04202D14FF0FF3070BD48
:102E5000B84840680079A04202DC4FF0FF30F6E746
:102E6000B449496808782B4601222146FFF7E3FD63
:102E7000EDE738B50446AF4890F82300A04201D1F1
:102E8000002038BD14B13020009001E000200090F7
:102E9000A848807C20B19DF8000040F0020000901E
:102EA000A44890F8220020B19DF8000040F0800076
:102EB0000090A04A1268D17D9E4A526810786B46F5
:102EC0000122FFF7D5FC10B14FF0FF30D9E7994848
:102ED00080F823400020D4E738B5044604F07000A1
:102EE00010B10120009005E014B10020009001E035
:102EF000402000908F4A1268517D8E4A52681078A7
:102F00006B460122FFF7B4FC20B100218948817291
:102F1000481E38BD9DF8000020F04001854801732F
:102F20000020009004F0400020B99DF8000040F01F
:102F30000400009004F0200020B99DF8000040F04B
:102F40000200009004F0100020B99DF8000040F04D
:102F50000100009004F0080020B99DF8000040F046
:102F600038000090734A1268917D724A5268107856
:102F70006B460122FFF77CFC20B100216D48817275
:102F8000481EC6E724B1082C02D00020FFF771FFCD
:102F900068488472002101753220FFF7E9FA0020A9
:102FA000B7E738B504466348807CA04201D10020D1
:102FB00038BD002C46D05F4A126811795D4A5268CC
:102FC00010786B460122FFF736FD10B14FF0FF304D
:102FD000EEE79DF8000020F020000090554A1268AE
:102FE0001179544A526810786B460122FFF740FC71
:102FF00010B14FF0FF30DBE70320FFF7B9FA0220F2
:1030000000904C4890F8220020B19DF8000040F05C
:1030100080000090474890F8230020B19DF8000000
:1030200040F030000090434A1268D17D414A526816
:1030300010786B460122FFF71BFC002851D04FF09F
:10304000FF30B5E73B4A126811793A4A5268107866
:103050006B460122FFF7EFFC10B14FF0FF30A7E7FE
:103060003448807A00F0010028B19DF8000040F05B
:103070002000009004E09DF8000020F02000009067
:103080002C4A126811792B4A526810786B4601223B
:10309000FFF7EEFB10B14FF0FF3089E70320FFF799
:1030A00067FA244890F8220010B18020009001E0D7
:1030B000002000901F4890F8230020B19DF80000E8
:1030C00040F0300000901B4A1268D17D194A5268C6
:1030D00010786B460122FFF7CBFB10B14FF0FF30A9
:1030E00066E714488474002062E708B51148807AC6
:1030F00010B94FF0FF3008BD002000900D4A126853
:10310000517C0C4A526810786B460122FFF7B0FBE5
:1031100010B14FF0FF30EEE7064A12685179054AC8
:10312000526810786B460122FFF7A2FB60B14FF0A6
:10313000FF30E0E7E8000020252335783A202523FA
:1031400035780D0A00000000F84A12681179F74A34
:10315000526810786B460122FFF78AFB10B14FF0DE
:10316000FF30C8E7F14890F82400002853D00C2025
:103170000090EE4A12681179EC4A526810786B465A
:103180000122FFF775FB10B14FF0FF30B3E732209B
:10319000FFF7EEF9C0200090E448807A00F00100CB
:1031A00020B19DF8000040F020000090DF4A126836
:1031B0001179DE4A526810786B460122FFF758FBFE
:1031C00010B14FF0FF3096E7D848407C10B1022094
:1031D000009001E000200090D44A1268517CD34A4C
:1031E000526810786B460122FFF742FB10B14FF096
:1031F000FF3080E700200090CC4A12685179CB4A1A
:10320000526810786B460122FFF732FB002855D038
:103210004FF0FF306FE704200090C44A1268117924
:10322000C24A526810786B460122FFF721FB10B1A9
:103230004FF0FF305FE7BD48807C20B9BB48807A03
:1032400000F0010010B94020009001E060200090E3
:10325000B64A12681179B54A526810786B46012255
:10326000FFF706FB10B14FF0FF3044E73220FFF7C5
:103270007FF9AE48407C10B10120009001E00020B1
:103280000090AA4A1268517CA84A526810786B468E
:103290000122FFF7EDFA10B14FF0FF302BE7A34A00
:1032A00012685179A14A52681078A04B103301225C
:1032B000FFF7DEFA10B14FF0FF301CE700201AE7ED
:1032C00070B50446002624F00104984890F82400C4
:1032D00008B1002070BD9548807A10B94FF0FF30DA
:1032E000F8E79248057C807A2040904908740846A7
:1032F000007CA04202D04FF0FF3600E0002614B957
:103300008A48007D18B10120FFF720FD02E000206F
:10331000FFF71CFD3CB1FFF7E8FE20B183480574C0
:103320004FF0FF30D6E73046D4E738B504467F4843
:10333000807A10B94FF0FF3038BDBC2C02DB012081
:10334000009015E0622C02DB0220009010E02A2C95
:1033500002DB032000900BE0142C02DB0420009021
:1033600006E00A2C02DB0520009001E00620009018
:103370006E48C07A9DF80010884201D10020DBE73A
:103380006A4A12689178694A526810786B4601223D
:10339000FFF76EFA10B14FF0FF30CDE79DF8001047
:1033A0006248C1720020C7E738B50446282C02DD08
:1033B0004FF0FF3038BDDCB90020FFF75AFD002088
:1033C0008DF8000007208DF80100584A1268517DE1
:1033D000564A526810786B460222FFF749FA10B13C
:1033E0004FF0FF30E6E70021504801750020E1E78B
:1033F0000120FFF73EFD20208DF80000012C06D1B2
:1034000000208DF801000520FFF78FFF17E0052C45
:1034100006DC01208DF801000520FFF786FF0EE095
:10342000142C06DC02208DF801000A20FFF77DFF36
:1034300005E003208DF801001420FFF776FF9DF8CA
:103440000100072101EB8010C0B28DF80100374A5E
:103450001268517D354A526810786B460222FFF798
:1034600007FA10B14FF0FF30A4E708212F4881720E
:1034700000210173012101750020FFF721FF0020C9
:1034800098E738B504462948807A10B94FF0FF30E4
:1034900038BD264890F8240010B14FF0FF30F7E710
:1034A0002248007D50B134B1282C04DC2046FFF7BF
:1034B0007BFF0020ECE70020FFF776FF042C01DA09
:1034C000042404E0B4F57A7F01DD4FF47A744FF4FC
:1034D0007A7090FBF4F0401EC0B20090134A12685C
:1034E0005178124A526810786B460122FFF7C0F9F2
:1034F00010B14FF0FF30CBE79DF80000401C4FF4B7
:103500007A7191FBF0F081B20848C1810146C98906
:103510004810FFF70AFF0020BAE738B50446034811
:10352000807A28B94FF0FF3038BD0000E800002055
:10353000022C06D0042C07D0082C08D0102C0CD15B
:1035400008E0002000900BE00820009008E0102028
:10355000009005E01820009002E04FF0FF30E3E714
:1035600000BFF748407A9DF80010B0EBE10F01D1A1
:103570000020D9E7F24A1268D179F14A52681078EE
:103580006B460122FFF774F910B14FF0FF30CBE723
:103590009DF80000C110EA4841720020C4E738B528
:1035A0000446E748807A10B94FF0FF3038BDFA2C56
:1035B00009D0B4F5FA7F09D0B4F57A7F09D0B4F513
:1035C000FA6F0CD108E0002000900BE0082000907A
:1035D00008E01020009005E01820009002E04FF075
:1035E000FF30E3E700BFD648007A9DF80010B0EB4B
:1035F000E10F01D10020D9E7D14A12689179D04A70
:10360000526810786B460122FFF732F910B14FF083
:10361000FF30CBE79DF80000C010C94908720020B8
:10362000C4E71CB5044680208DF80000C44A126827
:10363000517DC34A526810786B460122FFF718F992
:1036400010B14FF0FF301CBD6420FEF791FF002049
:103650008DF80000BA4A1268517DB94A5268107854
:103660006B460122FFF704F910B14FF0FF30EAE793
:103670000021B348C174FF218172FF20B049087254
:10368000FF21AF484172C1724FF6FF71C181FF2126
:10369000017481740121017380F82210002180F8E7
:1036A0002310417501751630016041608160163844
:1036B00080F8241080F82510C1844FF4FA60FFF7D9
:1036C0006EFF10B14FF0FF30BDE70220FFF725FF7E
:1036D00010B14FF0FF30B6E72A20FFF726FE10B1F9
:1036E0004FF0FF30AFE73220FFF7CBFE10B14FF0C5
:1036F000FF30A8E70020FFF7E3FD10B14FF0FF30E7
:10370000A1E70020FFF74DFC10B14FF0FF309AE722
:103710000020FFF7E1FB002095E77CB504460D464D
:103720008748807A00F0700010B94FF0FF307CBD00
:10373000834A1268917B824A526810786B4606224F
:10374000FFF779F910B14FF0FF30F0E79DF8010075
:103750009DF8001040EA012000B220809DF803008F
:103760009DF8021040EA012000B260809DF805003B
:103770009DF8041040EA012000B2A08015B128464F
:10378000FEF7FEFE0020D2E77CB504460D466C48ED
:10379000807A00F0080010B94FF0FF307CBD684A15
:1037A0001268D17B664A526810786B460622FFF792
:1037B00042F910B14FF0FF30F0E79DF801009DF89D
:1037C000001040EA012000B220809DF803009DF81F
:1037D000021040EA012000B260809DF805009DF8CB
:1037E000041040EA012000B2A08015B12846FEF77F
:1037F000C7FE0020D2E72DE9FE4F05460C46504893
:10380000807A18B94FF0FF30BDE8FE8F4C4A12683D
:10381000117C4B4A5268107802AB0222FFF70BF979
:1038200010B14FF0FF30EFE79DF809009DF8081048
:1038300040EA012006B214B12046FEF7A1FE40493D
:103840004968C88809F0B5FC3D4901904968B1F95B
:10385000080009F0A5FC8346304609F0A1FC594652
:10386000009009F07CFA8246019909F0B0FA81468D
:10387000344909F022FA80464FF08F4109F075FA79
:10388000074609F0CFFC28600020BDE71CB50446C0
:103890002B49496808786B4602227721FFF7CBF85D
:1038A00010B14FF0FF301CBD2549496808780DF173
:1038B000020302227A21FFF7BEF810B14FF0FF3069
:1038C000F1E71F494968087801AB02227D21FFF723
:1038D000B2F810B14FF0FF30E5E79DF801009DF818
:1038E000001040EA012020609DF803009DF80210BE
:1038F00040EA012060609DF805009DF8041040EA50
:103900000120A0600020CEE71CB504460C494968A0
:1039100008786B4602220621FFF78DF810B14FF0B0
:10392000FF301CBD0649496808780DF102030222E8
:103930000821FFF780F838B14FF0FF30F1E70000C1
:10394000E800002000000C42F7494968087801AB04
:1039500002220A21FFF76FF810B14FF0FF30E0E7C5
:103960009DF801009DF8001040EA012020609DF8BC
:1039700003009DF8021040EA012060609DF80500F8
:103980009DF8041040EA0120A0600020C9E71CB5A2
:103990000446E549496808786B4602221321FFF77F
:1039A0004AF810B14FF0FF301CBDDF494968087874
:1039B0000DF1020302221521FFF73DF810B14FF07F
:1039C000FF30F1E7D8494968087801AB0222172196
:1039D000FFF731F810B14FF0FF30E5E79DF8010037
:1039E0009DF8001040EA012020609DF803009DF83A
:1039F000021040EA012060609DF805009DF8041067
:103A000040EA0120A0600020CEE77CB504460020FB
:103A100000900190002500BF05E054F825004042C9
:103A200044F825006D1C032DF7DB2088000A8DF873
:103A3000000020788DF80100A088000A8DF80200AF
:103A400020798DF803002089000A8DF80400207A7F
:103A50008DF80500B449496808786B4602221321A5
:103A6000FEF706FF10B14FF0FF307CBDAE4949684C
:103A700008780DF1020302221521FEF7F9FE10B1BC
:103A80004FF0FF30F1E7A8494968087801AB0222FE
:103A90001721FEF7EDFE10B14FF0FF30E5E70020F3
:103AA000E3E710B586B0044600200490059001902D
:103AB0000290039001A8FFF727FF18B14FF0FF30E5
:103AC00006B010BD0198216821F00101401A019053
:103AD0000298616821F00101401A02900398A168E0
:103AE00021F00101401A03900198000A8DF810009E
:103AF0000198C0B28DF811000298000A8DF81200EA
:103B00000298C0B28DF813000398000A8DF81400D3
:103B10000398C0B28DF8150083494968087804AB52
:103B200002220621FEF7A4FE10B14FF0FF30C7E7D6
:103B30007D49496808780DF1120302220821FEF739
:103B400097FE10B14FF0FF30BAE77749496808781F
:103B500005AB02220A21FEF78BFE10B14FF0FF30B9
:103B6000AEE70020ACE710B586B004460020049014
:103B7000059001900290039001A8FFF787FE18B10D
:103B80004FF0FF3006B010BD0198216821F001010F
:103B9000401A01900298616821F00101401A0290D8
:103BA0000398A16821F00101401A03900198000ACE
:103BB0008DF810000198C0B28DF811000298000A2B
:103BC0008DF812000298C0B28DF813000398000A15
:103BD0008DF814000398C0B28DF815005249496859
:103BE000087804AB02227721FEF742FE10B14FF0B5
:103BF000FF30C7E74C49496808780DF112030222EB
:103C00007A21FEF735FE10B14FF0FF30BAE7464992
:103C10004968087805AB02227D21FEF729FE10B124
:103C20004FF0FF30AEE70020ACE701463E48007A97
:103C300030B1012807D0022809D003280FD10AE0AB
:103C4000FA2008800EE04FF4FA7008800AE04FF482
:103C50007A70088006E04FF4FA60088002E00020E5
:103C6000088000BF00BF0020704701462E48407A00
:103C700030B1012807D0022808D003280CD108E071
:103C8000022008700BE00420087008E0082008708B
:103C900005E01020087002E04FF0FF30704700BFD1
:103CA0002148C07C18B108784006000E087000203A
:103CB000F4E701461C48C07A082817D2DFE800F074
:103CC0001704070A0D101318BC20088013E06220A7
:103CD000088010E02A2008800DE0142008800AE007
:103CE0000A20088007E00520088004E000BF00BF2C
:103CF0000020088000BF00BF0020704701460A482E
:103D000090F8240010B14FF0FF3070470648C0898A
:103D100008800020F9E7014600200880401E704717
:103D200001464FF0FF307047E80000200146FE4892
:103D3000007A30B1012807D0022808D003280CD11E
:103D400008E0FA4808600BE0F948086008E0F94824
:103D5000086005E0F848086002E04FF0FF30704767
:103D600000BF0020FBE70146EF48407A30B1012850
:103D700008D002280AD0032810D10BE04FF480406D
:103D800008800EE04FF4005008800AE04FF48050A5
:103D9000088006E04FF40060088002E04FF0FF303A
:103DA000704700BFE048C07C10B108884010088010
:103DB0000020F5E70146DC48007C087000207047D1
:103DC0000146D948807A10B10120087001E0002036
:103DD00008700020704738B50446D348807A10B97F
:103DE0004FF0FF3038BDD04A1268917CCE4A5268FD
:103DF00010786B460222FEF71EFE10B14FF0FF3026
:103E0000F0E79DF801009DF8001040EA012000B2A3
:103E100020800020E6E72DE9FE4F074688469246BF
:103E20001D46DDF830B000260024BF4890F824007D
:103E300010B1601EBDE8FE8F00202870BA48807A5D
:103E400010B94FF0FF30F5E7B748007C10B94FF0DC
:103E5000FF30EFE7B448007C00F0400008B1B01C30
:103E6000C6B2B148007C00F0200008B1B01CC6B258
:103E7000AD48007C00F0100008B1B01CC6B2AA48E2
:103E8000007C00F0080008B1B01DC6B2A64A126856
:103E9000117BA54A526810786B460222FEF7CBFDD3
:103EA00010B14FF0FF30C5E79DF801009DF80010FC
:103EB00040EA0129B14501DA0020BBE79A48406891
:103EC0004088B9EB600F17DD974A1268D17C964A9B
:103ED000526810786B460122FEF7ADFD10B14FF02D
:103EE000FF30A7E79DF8000000F0100020B1FFF7B9
:103EF000FCF86FF001009DE75046FEF741FB8A4A4F
:103F00001268517B884A526810786B463246FEF739
:103F100092FD10B14FF0FF308CE799FBF6F0401E98
:103F20008BF8000000202870B4422AD07E48007C24
:103F300000F0080028B3601C1DF800001DF80410F4
:103F400040EA012000B2A8F80000E01C1DF80010B3
:103F5000A01C1DF8000041EA002000B2A8F80200F1
:103F6000601D1DF80010201D1DF8000041EA002012
:103F700000B2A8F80400287840F008002870A01DBE
:103F800084B2B44213D06848007C00F0400070B1A5
:103F9000601C1DF800001DF8041040EA012000B26A
:103FA0003880287840F040002870A01C84B2B442C9
:103FB00013D05D48007C00F0200070B1601C1DF83B
:103FC00000001DF8041040EA012000B27880287833
:103FD00040F020002870A01C84B2B44213D0524894
:103FE000007C00F0100070B1601C1DF800001DF88E
:103FF000041040EA012000B2B880287840F0100098
:104000002870A01C84B2002014E7F8B504460F46BF
:104010001646454890F8240010B94FF0FF30F8BD1F
:104020004148807A10B94FF0FF30F8E73E4A1268F5
:10403000117B3D4A526810786B460222FEF7FBFC6A
:1040400010B14FF0FF30EAE79DF801009DF8001035
:1040500040EA0125A54203DA00203070401EDEE769
:10406000314840684088B5EB600F17DD2E4A126872
:10407000D17C2D4A526810786B460122FEF7DBFC9A
:1040800010B14FF0FF30CAE79DF8000000F01000BB
:1040900020B1FFF72AF86FF00100C0E7224A12684A
:1040A000517B214A526810783B462246FEF7C3FCFA
:1040B00010B14FF0FF30B2E795FBF4F0401E3070C6
:1040C0000020ACE70146184880F822100020704715
:1040D0007CB5054614494968087801AB04220D21D6
:1040E000FEF7A9FC08B107207CBD9DF80700C0F3CE
:1040F00001109DF8041001F0E00140EAE1008DF8A4
:1041000000009DF80700C0F381009DF8051001F044
:10411000E00140EAE1008DF801009DF8070000F0A1
:1041200003009DF8061009E0E800002000000343AA
:1041300000008342333303423333834101F0E00113
:1041400040EAE1008DF8020000241CE01DF80400A4
:1041500018B9002045F8240013E0FC4845F8240075
:1041600006E055F82400FA4908F0FFFD45F8240060
:104170001DF80400401EC0B20DF804000028F0D164
:1041800000BF601CC4B2032CE0DB0020ACE72DE9CB
:10419000F04F85B006468946002502A8FFF798FF34
:1041A00000244BE056F8240059F82410471A002F39
:1041B00001DB394600E07942084608F0F1FF80460D
:1041C0004FF08F4108F003FE824602A951F8240007
:1041D000002109F0F3F821D002A850F8241050462D
:1041E00008F0F5FD07464FF07E5108F0B8FD834614
:1041F000D849486A09F083F807468846584609F0C6
:104200007EF821F000413A464346CDE9000109F02D
:10421000A1F812D20120A04005430EE0CD48C169AB
:10422000504609F0CBF805D3CA48016A504609F058
:10423000CFF802D20120A0400543641C032CB1DB5F
:10424000284605B0BDE8F08F2DE9F04F85B0064651
:104250000F460025C0494968087804AB03220D21A8
:10426000FEF7E9FB18B1072005B0BDE8F08F9DF817
:10427000100000F01F008DF810009DF8110000F0F4
:104280001F008DF811009DF8120000F01F008DF83E
:104290001200002461E056F8240057F82410A0EB27
:1042A000010BBBF1000F01DB594601E0CBF100012E
:1042B000084608F075FF4FF08F41039008F087FD26
:1042C000814604A8005DB8B3A249086808F071FFF0
:1042D00083465946A14808F07AFD804604E0A0498B
:1042E000404608F042FD804604A8005D401EC0B272
:1042F00004A908550028F2D14146484608F067FD58
:1043000083464FF07E5108F02AFD82469149886924
:1043100008F0F5FFCDE90201504608F0F0FF21F06A
:104320000041CDE90001DDE9022309F013F813D2C1
:104330000120A04005430FE0FFE786480169484699
:1043400009F03CF805D383484169484609F040F834
:1043500002D20120A0400543641C032C9BDB2846AD
:1043600082E72DE9F04F87B005460C4691460120C3
:104370008DF8100000208DF81100774A1268517DE9
:10438000754A5268107804AB0222FEF771FA20B128
:104390004FF0FF3007B0BDE8F08FC820FEF7E8F817
:1043A00000208DF810006C4A1268517C6A4A5268ED
:1043B000107804AB0122FEF75BFA10B14FF0FF302A
:1043C000E8E7654A12685179634A5268107804AB8D
:1043D0000122FEF74DFA10B14FF0FF30DAE75E4AE6
:1043E0001268517D5C4A5268107804AB0122FEF7D6
:1043F0003FFA10B14FF0FF30CCE7574A1268917E78
:10440000554A5268107804AB0122FEF731FA10B118
:104410004FF0FF30BEE7504A126811794E4A526899
:10442000107804AB0122FEF723FA10B14FF0FF30F1
:10443000B0E70C208DF81000474A12681179464AFF
:104440005268107804AB0122FEF712FA10B14FF057
:10445000FF309FE70F20FEF78BF83F48806A407AD5
:104460008DF810003C4A126891783B4A52681078E7
:1044700004AB0122FEF7FCF910B14FF0FF3089E7E1
:104480003548806A007A8DF81000334A12685178F6
:10449000314A5268107804AB0122FEF7E9F910B1F5
:1044A0004FF0FF3076E7B9F1000F07D02A48806A55
:1044B000807A40F0E0008DF8100004E02648806A21
:1044C000807A8DF81000244A12689179224A526845
:1044D000107804AB0122FEF7CBF910B14FF0FF309A
:1044E00058E7B9F1000F07D01B48806AC07A40F046
:1044F000E0008DF8100003E01648C07A8DF8100037
:10450000154A1268D179144A5268107804AB012216
:10451000FEF7AEF910B14FF0FF303BE7B9F1000FF5
:1045200002D0C820FEF724F840208DF810000A4A77
:1045300012681179084A5268107804AB0122FEF71C
:1045400097F978B14FF0FF3024E700007B14AE3EBE
:104550001D5A843FB4EE0008E800002000B04C452E
:1045600054E3853F78208DF81000FE4A1268517997
:10457000FC4A5268107804AB0122FEF779F910B1B9
:104580004FF0FF3006E7F8498889FDF7F1FF00207A
:104590008DF81000F34A12685179F24A5268107887
:1045A00004AB0122FEF764F910B14FF0FF30F1E6E1
:1045B000EC4A1268117BEB4A5268107804AB022275
:1045C000FEF739FA10B14FF0FF30E3E69DF8110025
:1045D0009DF8101040EA012B0C209BFBF0F0C6B2B6
:1045E0000020A86068602860A0606060206082464B
:1045F00065E0DC4A1268517BDA4A5268107804ABF5
:104600000C22FEF718FA10B14FF0FF30C2E69DF809
:1046100011009DF8101040EA012000B2ADF808002A
:104620009DF813009DF8121040EA012000B2ADF889
:104630000A009DF815009DF8141040EA012000B210
:10464000ADF80C00BDF90810206808442060BDF9E1
:104650000A10606808446060BDF90C10A068084446
:10466000A0609DF817009DF8161040EA012000B2E6
:10467000ADF800009DF819009DF8181040EA0120DF
:1046800000B2ADF802009DF81B009DF81A1040EA38
:10469000012000B2ADF80400BDF9001028680844FC
:1046A0002860BDF90210686808446860BDF904100C
:1046B000A8680844A8600AF1010000F0FF0AB245AA
:1046C00097DBA948D0F800C02868C117090441EA5F
:1046D0001041070462460023384608F05DFA32466E
:1046E0000023CDE9020108F057FA28609E48D0F86F
:1046F00000C06868C117090441EA10410704624616
:104700000023384608F048FA32460023CDE902017A
:1047100008F042FA68609448D0F800C0A868C11751
:10472000090441EA1041070462460023384608F0B4
:1047300033FA32460023CDE9020108F02DFAA860D1
:104740008948D0F804C02168C817000440EA11481D
:104750000F04624600233846414608F01DFA3246EF
:104760000023CDE9020108F017FA20607E48D0F856
:1047700004C06068C117090441EA10410704624699
:104780000023384608F008FA32460023CDE902013A
:1047900008F002FA60607448D0F804C0A068C1173D
:1047A000090441EA1041070462460023384608F034
:1047B000F3F932460023CDE9020108F0EDF9A060DB
:1047C000A068002804DDA068A0F58030A06003E0A8
:1047D000A06800F58030A0600020DBE538B5044615
:1047E000604890F82400A04201D1002038BD24B3D5
:1047F0005C4890F8250010B94FF0FF30F6E7002034
:10480000FEF7A4FA0020FEF7CCFB5649C88CFEF751
:1048100038FE002000905349496808786B46012211
:104820002321FEF725F801214E4880F824100120AD
:10483000FEF78CFAFEF759FC13E00020FEF786FA2B
:104840004848007C00904749496808786B46012237
:104850002321FEF70DF80021424880F82410FEF7CE
:1048600044FC0020C2E72DE9F04F8DB083460F468F
:1048700002200C903B4890F8240020B10020FFF764
:10488000ADFF012600E0002603A8FFF7CEF905A83A
:10489000FFF7EBF901A8FFF70CFA02A8FFF72EFAD1
:1048A000304890F80AA004A8FFF784FA002407E033
:1048B000002239465846FFF754FD00B902E0641C57
:1048C000022CF5DB00BF022C01D100252AE00024D8
:1048D00007E0012206A909A8FFF743FD00B902E09D
:1048E000641C022CF5DB00BF022C01D1002519E06D
:1048F00006A93846FFF74BFC00F0FF0809A9584607
:10490000FFF7A2FC00F0FF090025B9F1000F01D16B
:1049100045F00105B8F1000F01D145F0020545F061
:10492000040500BFFF200F490872FF210D484172A6
:10493000C1724FF6FF71C181FF21817201740121A3
:104940000173BDF80C00FEF72AFE9DF81400FEF777
:10495000E4FDBDF80400FEF7E8FCBDF80800FEF732
:1049600090FD03E0E8000020B4EE00085046FEF79A
:10497000B3FA9DF81000FEF7A3FC16B10120FFF773
:104980002DFF28460DB0BDE8F08FF8B504460D4662
:10499000164616B94FF0FF30F8BDA748807A10B917
:1049A0004FF0FF30F8E720128DF80000E0B28DF8EC
:1049B00001009DF8010028449F49496849898842BF
:1049C00002DD4FF0FF30E7E79B4A1268D17E9A4A3A
:1049D000526810786B460222FDF74AFF10B14FF083
:1049E000FF30D9E7944A1268117E934A52681078D2
:1049F00033462A46FDF73CFF10B14FF0FF30CBE7BE
:104A00000020C9E7F8B504460D46164616B94FF022
:104A1000FF30F8BD8848807A10B94FF0FF30F8E7D2
:104A200020128DF80000E0B28DF801009DF8010021
:104A30002844814949684989884202DD4FF0FF30A6
:104A4000E7E77D4A1268D17E7B4A526810786B4650
:104A50000222FDF70DFF10B14FF0FF30D9E7764A83
:104A60001268117E744A5268107833462A46FDF760
:104A7000E2FF10B14FF0FF30CBE70020C9E72DE98E
:104A8000F04385B005460E46904699466A4890F830
:104A9000250020B14FF0FF3005B0BDE8F08316B916
:104AA0004FF0FF30F8E7002423E0281B102801DD39
:104AB000102000E0281B87B2321939462046FFF744
:104AC00064FF10B14FF0FF30E6E701AA39462046F7
:104AD000FFF798FF10B14FF0FF30DDE730193A468D
:104AE00001A908F0DDF810B16FF00100D4E7E0197A
:104AF00084B2AC42D9DB4FEA28208DF8000008F0E0
:104B0000FF008DF801004C4A1268517F4A4A5268F2
:104B100010786B460222FDF7ABFE10B14FF0FF306C
:104B2000BAE70121444880F82510A0F8269000201B
:104B3000B2E70146404890F8240008700020704712
:104B400002464FF0FF30704701464FF0FF3070478C
:104B500070B506460C46154665B304B901243648BF
:104B6000407D002833D1344890F8240038B100202B
:104B7000FFF734FE0121304880F8201003E00021C7
:104B80002D4880F820102C481630FFF74EF82A48A0
:104B90001830FFF76AF828481A30FFF78AF82648D5
:104BA0001C30FFF7ABF82448817A81771F30FFF77C
:104BB00001F90CE0204A1632002103E0505C00B1FC
:104BC00006E0491C0C29F9D34FF0FF3070BD00BF3F
:104BD000FF2019490872FF2117484172C1724FF630
:104BE000FF71C181FF2181720174012101730146AE
:104BF000887FFEF771F91049C88AFEF7D0FC0E498C
:104C0000087EFEF78AFC0C49488BFEF78EFB0A49AA
:104C1000888BFEF736FC0849C87FFEF751FB064833
:104C200090F8200010B10120FFF7D8FD00210248C4
:104C300041750020CAE70000E800002010B5C82335
:104C40004FF48062F84940F6F630FFF718FF10BDC8
:104C500010B586B00446F5A000680390F4A0006883
:104C60000290F4A000680190F3A00068009004F0A6
:104C7000030003A9085C8DF8140003A8C4F3C10164
:104C8000405C8DF8150003A8C4F38111405C8DF8D9
:104C9000160004F0030002A9085C8DF8100002A8B9
:104CA000C4F3C101405C8DF8110002A8C4F3811166
:104CB000405C8DF8120005AA032140F22640FFF760
:104CC00064FE18B14FF0FF3006B010BD04AA0321F6
:104CD00040F22A40FFF759FE10B14FF0FF30F3E7E2
:104CE000019805900098049004F0040058B19DF8D4
:104CF000140040F001008DF814009DF8100040F001
:104D000001008DF8100004F0200058B19DF8150046
:104D100040F001008DF815009DF8110040F00100F1
:104D20008DF8110004F4807058B19DF8160040F021
:104D300001008DF816009DF8120040F001008DF87A
:104D4000120005AA03214FF48860FFF71EFE10B180
:104D50004FF0FF30B8E704AA032140F23140FFF7DB
:104D600014FE10B14FF0FF30AEE7B44804810020CC
:104D7000AAE71FB50446B148007A00F0030054F8D2
:104D800020000190AD48007A00F0040010B10198B5
:104D900040420190A948007AC0F3C10054F82000B5
:104DA0000290A648007A00F0200010B1029840421C
:104DB0000290A248007AC0F3811054F820000390BA
:104DC0009E48008900F4807010B10398404203901F
:104DD0009B49019880FB0101800F40EA810001900E
:104DE0009749029880FB0110820042EA917002907C
:104DF0009349039880FB0110820042EA917003906E
:104E00000198000E8DF800000198000C8DF801004B
:104E10000198000A8DF802000198C0B28DF80300D5
:104E20006A4604214FF47470FFF7AFFD18B14FF0DC
:104E3000FF3004B010BD0298000E8DF800000298FB
:104E4000000C8DF801000298000A8DF8020002980B
:104E5000C0B28DF803006A4604214FF47570FFF765
:104E600094FD10B14FF0FF30E3E70398000E8DF88A
:104E700000000398000C8DF801000398000A8DF8DB
:104E800002000398C0B28DF803006A4604214FF473
:104E90007670FFF77AFDCCE770B588B0064601A8BA
:104EA000FEF761FFBDF804000021C90341EA504547
:104EB000C40300BF6148007A00F0030056F82000E8
:104EC00005905E48007A00F0040010B10598404259
:104ED00005905A48007AC0F3C10056F820000690A9
:104EE0005648007A00F0200010B106984042069023
:104EF0005248007AC0F3811056F8200007904F48BE
:104F0000008900F4807010B107984042079005981E
:104F1000C117A0FB042301FB043100FB0510810035
:104F200041EA927005900698C117A0FB042301FB8B
:104F3000043100FB0510810041EA92700690079849
:104F4000C117A0FB042301FB043100FB0510810005
:104F500041EA927007900598000E8DF808000598B8
:104F6000000C8DF809000598000A8DF80A000598D4
:104F7000C0B28DF80B000698000E8DF80C00069854
:104F8000000C8DF80D000698000A8DF80E000698AA
:104F9000C0B28DF80F000798000E8DF8100007982A
:104FA000000C8DF811000798000A8DF81200079880
:104FB000C0B28DF8130002AA0C214FF42570FFF740
:104FC000E4FC08B070BD30B585B004461DA207CA28
:104FD00002AB07C3C82C03DD4FF0FF3005B030BD76
:104FE000C82090FBF4F0401E85B2280A8DF800001E
:104FF000E8B28DF801006A46022140F21620FFF760
:10500000C4FC10B14FF0FF30E8E702AA0C2140F6D3
:10501000C120FFF7BAFC10B14FF0FF30DEE70748C0
:1050200084810020DAE70000DCEE00084CCD6C0043
:105030000CC92C003656760026466600A8010020D2
:1050400009E3CA02FEF2ABC4AAF1DFDFBBAFDFDFC8
:105050000146FC4880890880002070472DE9FC4704
:1050600006460F4606F0070010B1B7F5C86F03DD1E
:105070004FF0FF30BDE8FC87384608F09AF88146CB
:10508000F14907F0A4FE80466846FEF7EEFD9DF864
:105090000000022806D0042816D0082826D01028A0
:1050A00048D135E04FF08D41404607F05EFE814625
:1050B00008F0D1F884B2E549404607F056FE814633
:1050C00008F0C9F885B238E04FF08C41404607F04F
:1050D0004CFE814608F0BFF884B2DD49404607F037
:1050E00044FE814608F0B7F885B226E04FF08B41C8
:1050F000404607F03AFE814608F0ADF884B2D54943
:10510000404607F032FE814608F0A5F885B214E06B
:105110004FF08A41404607F028FE814608F09BF890
:1051200084B2CD49404607F020FE814608F093F84E
:1051300085B202E04FF0FF309CE700BF20128DF8EF
:105140000400E0B28DF8050028128DF80600E8B2E0
:105150008DF8070006F00100A0B101AA02214FF46A
:10516000EA70FFF712FC10B14FF0FF3082E70DF14B
:10517000060202214FF49270FFF707FC10B14FF0C6
:10518000FF3077E706F00200A0B101AA02214FF438
:10519000EC70FFF7FAFB10B14FF0FF306AE70DF14A
:1051A000060202214FF49470FFF7EFFB10B14FF0AD
:1051B000FF305FE706F00400A0B101AA02214FF41E
:1051C000EE70FFF7E2FB10B14FF0FF3052E70DF148
:1051D000060202214FF49670FFF7D7FB10B14FF093
:1051E000FF3047E7002045E738B50446002000902F
:1051F00004F0010020B19DF8000040F03000009064
:1052000004F0020020B19DF8000040F00C00009076
:1052100004F0040020B19DF8000040F0030000906D
:105220006A4601214FF4A470FFF7AFFB38BD38B5D3
:105230000446012C01DA012402E0042C00DD0424E0
:10524000601EC0B200906A46012140F24F10FFF785
:105250009CFB38BD38B50446052094FBF0F085B2C0
:1052600028128DF80000E8B28DF801006A4602218C
:105270004FF4EF70FFF789FB38BD38B504460520C1
:1052800094FBF0F085B228128DF80000E8B28DF89A
:1052900001006A4602214FF4ED70FFF776FB38BD3E
:1052A000F8B505460E464FF47A7095FBF0F000FB1A
:1052B00006F4200E8DF80000200C8DF80100200A65
:1052C0008DF80200E0B28DF803006A4604214FF425
:1052D000AE70FFF75AFBF8BD38B50446052094FBC5
:1052E000F0F084B220128DF80000E0B28DF80100D9
:1052F0006A4602214FF4AD70FFF747FB38BD38B561
:105300000446052094FBF0F084B220128DF80000D2
:10531000E0B28DF801006A4602214FF4AC70FFF74D
:1053200034FB38BD38B5044614B94FF0FF3038BDF2
:105330006A4604214FF45870FFF764FB10B14FF038
:10534000FF30F4E79DF8000000069DF8011040EAE8
:1053500001409DF8021040EA01209DF80310084327
:1053600020600020E3E738B50446200E8DF80000E9
:10537000200C8DF80100200A8DF80200E0B28DF8B3
:1053800003006A4604214FF45870FFF7FEFA38BD57
:1053900038B5044614B94FF0FF3038BD6A460421D1
:1053A0004FF47170FFF72EFB10B14FF0FF30F4E7B0
:1053B0009DF8000000069DF8011040EA01409DF8AC
:1053C000021040EA01209DF80310084300EB800022
:1053D000800020600020E0E738B504461420B4FBCC
:1053E000F0F4200E8DF80000200C8DF80100200A4A
:1053F0008DF80200E0B28DF803006A4604214FF4F4
:105400007170FFF7C2FA38BD38B5044664B1202088
:105410008DF8000028208DF8010030208DF8020062
:1054200038208DF8030004E0A3220421684607F029
:1054300025FC6A46042140F69E20FFF7A6FAFDF7F8
:1054400054FE38BDA801002000004843000040463B
:105450000000C045000040450000C04438B5044687
:1054600064B1C0208DF80000C2208DF80100C42076
:105470008DF80200C6208DF8030004E08B22042181
:10548000684607F0FBFB6A46042140F69820FFF7C8
:105490007CFAFDF72AFE38BD3EB504466CB1FDA18D
:1054A000D1E900208968CDE9002002916A460921EE
:1054B0004FF49760FFF769FA3EBDF9A2D2E90010F8
:1054C0009268CDE9010200916A4609214FF4976084
:1054D000FFF75BFAF0E73EB5044602208DF80000C6
:1054E000CA208DF80100E3208DF8020009208DF814
:1054F00003006A4604216820FFF747FAA3208DF8CD
:10550000000004F0400048B1C0208DF80100C82020
:105510008DF80200C2208DF8030006E0A3208DF86C
:1055200001008DF802008DF8030004F4C07048B14A
:10553000C4208DF80400CC208DF80500C6208DF81D
:10554000060006E0A3208DF804008DF805008DF814
:105550000600A3208DF807008DF808008DF80900DB
:105560006A460A2140F6A720FFF70FFA04F003006D
:1055700018B120208DF8000002E0D8208DF800003E
:105580006A46012140F6B620FFF7FFF904F020003B
:1055900018B10120FFF780FF02E00020FFF77CFF39
:1055A00004F4C07008B304F4807060B1B2208DF8C8
:1055B00000008B208DF80100B6208DF802009B20A2
:1055C0008DF803000BE0B0208DF8000080208DF8EE
:1055D0000100B4208DF8020090208DF803006A4687
:1055E000042140F6A220FFF7D0F904F0010020B317
:1055F000F8208DF800006A4601214FF40B60FFF798
:10560000C4F9FA210720FFF729FD0720FFF7ECFD79
:105610000120FFF70CFE6420FFF71CFE4FF4FA7028
:10562000FFF72BFEC821A148FFF73AFE2820FFF71D
:1056300053FE0A20FFF763FE08E0D8208DF8000033
:105640006A4601214FF40B60FFF79FF904F0020056
:1056500018B1D9208DF8000002E0D8208DF80000A4
:105660006A46012140F23D70FFF78FF904F0040013
:1056700018B10120FFF7F2FE02E00020FFF7EEFE76
:1056800004F0100018B10120FFF7BEFE02E0002078
:10569000FFF7BAFE44F0080085494881FDF725FD73
:1056A00000208349887304F0400018B10846807BCD
:1056B000801D887304F4C07020B17D48807B801DFC
:1056C0007B49887304F0140020B17948807B103046
:1056D0007749887304F0030020B17548807B001D72
:1056E0007349887300203EBD014671484089088097
:1056F000002070472DE9F0410446E07800F0C00634
:10570000E07800F03F05607800F0010098B1EF10FC
:105710002846E91705EB5171C910A5EBC101491CD9
:1057200001F0FF086248006820B161484146026804
:105730003846904700BF607800F0080030B15C4800
:10574000406818B1B0115A4A516888470020BDE836
:10575000F08110B586B0044656A207CA03AB07C352
:1057600057A207CA8DE80700012C09D0022C0ED1E0
:1057700003AA0B2140F68220FFF707F906B010BDFF
:105780006A460B2140F68220FFF7FFF8F6E74FF05C
:10579000FF30F3E72DE9F04F8DB0074688461546F8
:1057A0009946DDE9166B0024002030804049887B53
:1057B0005A4605A9FEF729FC18B1601E0DB0BDE8D8
:1057C000F08F3B48807A00F01400002861D09DF8EB
:1057D000140000069DF8151040EA01409DF81610CF
:1057E00040EA01209DF81710084328609DF8180032
:1057F00000069DF8191040EA01409DF81A1040EA91
:1058000001209DF81B10084368609DF81C000006ED
:105810009DF81D1040EA01409DF81E1040EA01204D
:105820009DF81F100843A8609DF8200000069DF811
:10583000211040EA01409DF8221040EA01209DF825
:1058400023100843E86004F11000C4B22868001473
:105850000190686800140290A86800140390E8683A
:105860000014049001984043029901FB0100039940
:1058700001FB0100049901FB010ABAF1706F02DB20
:10588000BAF1885F22DDFDF730FC00203080401E39
:1058900094E721E0B8AAB38DB4980D355D000000FF
:1058A000B8AAAAAAB088C3C5C700000009E3CA0203
:1058B000A8010020D8B1B9F38BA391B609B4D900DF
:1058C000DAB1B9F38BA391B6DAB4DA00B6F9000015
:1058D00040F48070308000BF3448807A00F040008F
:1058E00020B305A9601C085C095D40EA012000B2F4
:1058F000A8F8000005A9E01C095C05AAA01C105C22
:1059000041EA002000B2A8F8020005A9601D095C68
:10591000201D105C41EA002000B2A8F80400A01D80
:10592000C4B2B6F9000040F0080030801F4840893A
:1059300000F4C07008B305A9601C085C095D40EA6A
:10594000012000B2388005A9E01C095C05AAA01C52
:10595000105C41EA002000B2788005A9601D095C56
:10596000201D105C41EA002000B2B880A01DC4B226
:10597000B6F9000040F0700030800C48807A00F0EA
:10598000030018B105A90819FFF7B4FE4846FCF753
:10599000F7FD002012E7014604480160002070472F
:1059A000014602484160002070470000A801002025
:1059B00010B50446E1B2BD48FCF78CF900BF802168
:1059C000BA48FCF7F5F90028F9D0204610BD0FB40D
:1059D0002DE9F041C8B006468846092E0ED2DFE810
:1059E00006F005060708090A0B0D0C0000BF00BFF2
:1059F00000BF00BF00BF00BF00BF05E0002048B0EF
:105A0000BDE8F0015DF814FB00BF51A8479007A85E
:105A1000479A509907F0D6FE0446002C03DC00207C
:105A200047902046EBE7182101A807F02EF9242023
:105A30008DF8040001208DF80500F0B28DF8060005
:105A40000D208DF819000A208DF81A00002512E0AB
:105A5000601B122801DA601B00E01220C7B212217D
:105A60000DF1070007F011F907A841193A4615385A
:105A700007F0E4F81235A542EADB0020479000BFAA
:105A8000BDE710B586B004460CB906B010BD1821AC
:105A9000684607F0FAF824208DF8000002208DF8FF
:105AA00001002068000E8DF803002068000C8DF8BE
:105AB00004002088000A8DF8050020788DF8060083
:105AC0006068000E8DF807006068000C8DF8080013
:105AD000A088000A8DF8090020798DF80A00A068D6
